:09098E00007F027EC7DEFEDFFCE3
:01099700223D
:04095300AD07AC063A
:10095700E4FBFAC3EB9DEA9C500A12098E0BBB001D
:04096700010A80EF12
:01096B002269
:1007F500776F726B00315F4F4B00325F4F4B0033A9
:100805005F4F4B0041542B43495053454E440D0A0D
:10081500003E007B224D223A227570646174652288
:100825002C224944223A223139393738222C225692
:10083500223A7B223137393335223A2231227D7DE6
:0B0845000D0A0053454E44204F4B00AD
:1002770075140112091912000E12096CD2AF751804
:10028700017BFF7A0779F57521047D057F02120846
:1002970050E51860071205018F1880F57BFF7A0774
:1002A70079FA7521047D057F02120850751801E55A
:1002B70018600712037E8F1880F57BFF7A0779FF96
:1002C7007521047D057F02120850751801E5186035
:1002D7000712046E8F1880F57BFF7A087904752161
:1002E700047D057F02120850E5146062751FFF75D3
:1002F70020087521167522007523C87BFF7A0879B7
:1003070009120728EF6003751401751F0075200097
:100317007521007522007523327BFF7A0879181240
:100327000728EF600375140175151AE4F516751F94
:10033700FF7520087521487522047523B0FB7A00E4
:100347007915120728EF6003751401E4F5147FE8A7
:100357007E031209537FE87E031209537FE87E0369
:100367001209537FE87E031209537FE87E031209BF
:07037700537514010202DFBF
:070003000234000001370088
:1009190053877F759850538EBF538EFE53890F436B
:0F0929008920758BFD758DFDC2ABD28ED2AC22AD
:0C098200C2AC8F993099FDC299D2AC2212
:1008F4008B258A268927AB25AA26A92712011C60E5
:10090400130527E5277002052614F912011CFF12AE
:05091400098280E222CF
:0300230002069F33
:10069F00C0E0C0F0C083C082C0D075D000C000C021
:1006AF0001C002C003C004C005C006C007309834A3
:1006BF00C298C3E5359464E534940050241209AC14
:1006CF00E53545347002D28C0535E535AE34700210
:1006DF000534142400F58274003EF583E599F0800B
:1006EF0003433480309902C299D007D006D005D089
:1006FF0004D003D002D001D000D0D0D082D083D08C
:04070F00F0D0E03214
:1001620041540D0A004F4B0041542B4350494E3F1E
:100172000D0A0052454144590041542B4352454710
:100182003F0D0A00302C3100302C350041542B43F6
:1001920053510D0A0041542B4347434C4153533DA5
:1001A2002242220D0A00310041542B434744434F5F
:1001B2004E543D312C224950222C22434D4E45545F
:1001C200220D0A00320041542B43474154543D3121
:1001D2000D0A00330041542B434C504F52543D22E0
:1001E200544350222C2232303030220D0A00360085
:1001F20041542B43495053544152543D225443508D
:10020200222C227777772E626967696F742E6E656A
:1002120074222C2238313831220D0A00434F4E4EBF
:10022200454354204F4B00370041542B4349505310
:10023200454E440D0A003E0038007B224D223A22F0
:10024200636865636B696E222C224944223A22312B
:1002520039393738222C224B223A226438626234EE
:1002620063636134227D0D0A00390053454E4420F8
:050272004F4B003000BD
:060897008B258A2689274B
:10089D007B007A007900E53430E721547FFE740047
:1008AD002535F58274003EF583E4F085252B8526EC
:0C08BD002C85272D0B7A00790012061DF7
:0108C900220C
:10071300751FFF7520017521677522007523647BA2
:05072300FF7A0179627C
:10072800E4F524F534F5357536011208F4E520456D
:1007380021451F603DE52345226037E523152370D9
:1007480002152214452260217F0A7E00120953E512
:100758003430E7E7AB1FAA20A921120897EA494BD2
:100768007007E4F534F53580D2E52345227003752A
:0B0778002401E4F534F535F536AF241C
:010783002253
:10050100120713EF6009120713EF60037FFF2275D3
:100511001FFF7520017521757522017523907BFFE1
:100521007A01796A120728EF60037FFE22751FFFA7
:100531007520017521867522017523907BFF7A0153
:10054100797B120728EF6045752BFF752C01752DFE
:100551008A7B017A00790012061DE94A4B702E75DB
:100561001FFF752001752167F5227523C87BFF7A6E
:1005710001798E120728EF701178387C00FD7B011C
:100581007A00790FFE7F021200F67FFD227F0022A2
:10037E00751FFF7520017521677522017523F47BAA
:10038E00FF7A017997120728EF60037F01227BFF26
:10039E007A0179A87521017D057F01120850751F1C
:1003AE00FF7520017521677522017523F47BFF7A95
:1003BE000179AA120728EF60037F07227BFF7A01DB
:1003CE0079C67521017D057F01120850751FFF75D5
:1003DE0020017521677522017523F47BFF7A01795F
:1003EE00C8120728EF60037F02227BFF7A0179D5BE
:1003FE007521017D057F01120850751FFF752001C3
:10040E007521677522007523C87BFF7A0179D71293
:10041E000728EF60037F03227BFF7A0179F07521B5
:10042E00017D057F011208507FF47E01120953757C
:10043E001FFF75200275211E7522007523C87BFFD4
:10044E007A0179F2120728EF60037F06227BFF7A8A
:10045E000279297521017D057F011208507F002246
:10046E00751FFF7520027521387522007523C87B14
:10047E00FF7A02792B120728EF60037F01227BFFA0
:10048E007A02793A7521017D057F01120850751F98
:10049E00007520007521007522007523327BFF7ACE
:1004AE0002793C120728EF60037F022275191AE4C5
:1004BE00F51A7BFF7A02796B7521017D057F01129A
:1004CE000850751FFF75200275216D75220B75235F
:1004DE00B87B007A007919120728EF60037F032298
:1004EE007BFF7A0279757521017D057F0112085017
:0204FE007F007D
:0105000022D8
:0509B30052494E47000F
:10096C00538E7F5389F0438901E4F58A758CDCC280
:06097C008DD2A9C28C22FD
:0709AC00E4F58A758CDC22E2
:03000B0002078465
:10078400C0E0C0F0C083C082C0D075D000C000C03B
:1007940001C002C003C004C005C006C007C28C4328
:1007A4003480E534547FFE74002535F58274003EB0
:1007B400F583E4F0E536701EF534F535752BFF75D9
:1007C4002C09752DB37B017A00790012061DE94AC4
:1007D4004B6003753701D007D006D005D004D00391
:1007E400D002D001D000D0D0D082D083D0F0D0E0DD
:0107F40032D2
:1008CA00C2B68FA07F017E001208DBD2B57F057EFB
:0108DA00001D
:1008DB00D3EF9400EE9400400F7DC77C01DCFEDD6E
:0808EB00FAEF1F70EB1E80E81C
:0108F30022E2
:0A099800C2B5C2B71208CAC2B522E8
:0A09A200C2B5D2B71208CAC2B522CE
:10000E007F381209987F0C1209987F061209987F83
:04001E00010209983A
:080850008D1D8B1E8A1F8920FB
:10085800EF24FE600904700EE51D24808004E51D68
:1008680024C0FF120998E4F522E522C39521501E01
:10087800AB1EAA1FA920852282758300120135FFAD
:0E0888001209A27F0A7E001208DB052280DB27
:01089600223F
:10093800AE0753050153060FED6003430640430617
:0B09480080AF06120998AF030209A25D
:0300000002059165
:0C059100787FE4F6D8FD75813B0205D8A8
:10002600E709F608DFFA8046E709F208DFFA803EBC
:1000360088828C83E709F0A3DFFA8032E309F608A9
:10004600DFFA8078E309F208DFFA807088828C8311
:10005600E309F0A3DFFA806489828A83E0A3F608C5
:10006600DFFA805889828A83E0A3F208DFFA804C9F
:1000760080D280FA80C680D4806980F28033801076
:1000860080A680EA809A80A880DA80E280CA8033DF
:1000960089828A83ECFAE493A3C8C582C8CCC58357
:1000A600CCF0A3C8C582C8CCC583CCDFE9DEE78027
:1000B6000D89828A83E493A3F608DFF9ECFAA9F0A6
:1000C600EDFB2289828A83ECFAE0A3C8C582C8CCFC
:1000D600C583CCF0A3C8C582C8CCC583CCDFEADE15
:1000E600E880DB89828A83E493A3F208DFF980CC77
:1000F60088F0EF60010E4E60C388F0ED2402B40470
:100106000050B9F582EB2402B4040050AF23234516
:06011600822390007673C5
:10011C00BB010689828A83E0225002E722BBFE02E1
:09012C00E32289828A83E4932214
:10013500BB010CE58229F582E5833AF583E022507F
:1001450006E92582F8E622BBFE06E92582F8E222C9
:0D015500E58229F582E5833AF583E49322E3
:10061D008B288A29892AAB2BAA2CA92D12011C60A3
:10062D0063AB28AA29A92A12011C605F852B2E8590
:10063D002C2F852D308B318A328933AB2EAA2FA9E1
:10064D003012011CFF6023AB31AA32A93312011CF9
:10065D006F7017042530F530E4352FF52F74012513
:10066D0033F533E43532F53280D1AB2EAA2FA930D4
:10067D0012011C7002800D7401252AF52AE435291A
:10068D00F529809DAB28AA29A92A227B007A007919
:02069D00002239
:10059D00020277E493A3F8E493A34003F68001F2FB
:1005AD0008DFF48029E493A3F85407240CC8C3335F
:1005BD00C4540F4420C8834004F456800146F6DF2E
:1005CD00E4800B0102040810204080900003E47EBB
:1005DD00019360BCA3FF543F30E509541FFEE49323
:1005ED00A360010ECF54C025E060A840B8E493A3EA
:1005FD00FAE493A3F8E493A3C8C582C8CAC583CA15
:10060D00F0A3C8C582C8CAC583CADFE9DEE780BECC
:01000A0000F5
:00000001FF
